{
  "contractName": "EtherTransferTo",
  "abi": [
    {
      "payable": true,
      "stateMutability": "payable",
      "type": "fallback"
    },
    {
      "constant": true,
      "inputs": [],
      "name": "balanceOf2",
      "outputs": [
        {
          "internalType": "uint256",
          "name": "",
          "type": "uint256"
        }
      ],
      "payable": false,
      "stateMutability": "view",
      "type": "function"
    }
  ],
  "bytecode": "0x6080604052348015600f57600080fd5b5060838061001e6000396000f3fe608060405260043610601c5760003560e01c8063b205caff14601e575b005b348015602957600080fd5b5060306046565b6040518082815260200191505060405180910390f35b60004790509056fea265627a7a7231582002c434100eae1a68456762705940000ba3b1e702fad827fa3165a342465b3f0f64736f6c63430005100032",
  "source": "pragma solidity >=0.4.22 <0.8.0;\r\n\r\ncontract EtherTransferTo {\r\n    \r\n    function () external payable {\r\n    }\r\n\r\n    function balanceOf2() external view returns(uint){\r\n        return address(this).balance;\r\n    }\r\n\r\n}\r\n\r\ncontract Pay {\r\n    string public functionCalled;\r\n    EtherTransferTo private _instance;\r\n\r\n    function sendEther() external payable {\r\n        functionCalled = 'sendEther';\r\n    }\r\n\r\n    function balanceOf() external view returns(uint){\r\n        return address(this).balance;\r\n    }\r\n\r\n    constructor() public {\r\n        // _instance = EtherTransferTo(address(this));\r\n        _instance = new EtherTransferTo();\r\n    }\r\n    \r\n    function sendEther2() external{\r\n        EtherTransferTo a = new EtherTransferTo();\r\n        address payable a_payable = address(uint160(address(a)));\r\n        a_payable.transfer(500);\r\n    }\r\n    \r\n}",
  "sourcePath": "C:/Users/pedro/leasing/contracts/pay.sol",
  "compiler": {
    "name": "solc",
    "version": "0.5.16+commit.9c3226ce.Emscripten.clang"
  },
  "schemaVersion": "3.2.5",
  "updatedAt": "2020-09-27T23:37:03.770Z",
  "networkType": "ethereum",
  "devdoc": {
    "methods": {}
  },
  "userdoc": {
    "methods": {}
  }
}