{
  "contractName": "Pay",
  "abi": [
    {
      "inputs": [],
      "payable": false,
      "stateMutability": "nonpayable",
      "type": "constructor"
    },
    {
      "constant": true,
      "inputs": [],
      "name": "functionCalled",
      "outputs": [
        {
          "internalType": "string",
          "name": "",
          "type": "string"
        }
      ],
      "payable": false,
      "stateMutability": "view",
      "type": "function"
    },
    {
      "constant": false,
      "inputs": [],
      "name": "sendEther",
      "outputs": [],
      "payable": true,
      "stateMutability": "payable",
      "type": "function"
    },
    {
      "constant": true,
      "inputs": [],
      "name": "balanceOf",
      "outputs": [
        {
          "internalType": "uint256",
          "name": "",
          "type": "uint256"
        }
      ],
      "payable": false,
      "stateMutability": "view",
      "type": "function"
    },
    {
      "constant": false,
      "inputs": [],
      "name": "sendEther2",
      "outputs": [],
      "payable": false,
      "stateMutability": "nonpayable",
      "type": "function"
    }
  ],
  "bytecode": "0x608060405234801561001057600080fd5b5060405161001d9061007f565b604051809103906000f080158015610039573d6000803e3d6000fd5b50600160006101000a81548173ffffffffffffffffffffffffffffffffffffffff021916908373ffffffffffffffffffffffffffffffffffffffff16021790555061008b565b60a1806104b483390190565b61041a8061009a6000396000f3fe60806040526004361061003f5760003560e01c80630e29df2214610044578063722713f71461004e578063cc81afc814610079578063f538ba6614610109575b600080fd5b61004c610120565b005b34801561005a57600080fd5b5061006361016e565b6040518082815260200191505060405180910390f35b34801561008557600080fd5b5061008e610176565b6040518080602001828103825283818151815260200191508051906020019080838360005b838110156100ce5780820151818401526020810190506100b3565b50505050905090810190601f1680156100fb5780820380516001836020036101000a031916815260200191505b509250505060405180910390f35b34801561011557600080fd5b5061011e610214565b005b6040518060400160405280600981526020017f73656e64457468657200000000000000000000000000000000000000000000008152506000908051906020019061016b929190610293565b50565b600047905090565b60008054600181600116156101000203166002900480601f01602080910402602001604051908101604052809291908181526020018280546001816001161561010002031660029004801561020c5780601f106101e15761010080835404028352916020019161020c565b820191906000526020600020905b8154815290600101906020018083116101ef57829003601f168201915b505050505081565b600060405161022290610313565b604051809103906000f08015801561023e573d6000803e3d6000fd5b50905060008190508073ffffffffffffffffffffffffffffffffffffffff166108fc6101f49081150290604051600060405180830381858888f1935050505015801561028e573d6000803e3d6000fd5b505050565b828054600181600116156101000203166002900490600052602060002090601f016020900481019282601f106102d457805160ff1916838001178555610302565b82800160010185558215610302579182015b828111156103015782518255916020019190600101906102e6565b5b50905061030f919061031f565b5090565b60a18061034583390190565b61034191905b8082111561033d576000816000905550600101610325565b5090565b9056fe6080604052348015600f57600080fd5b5060838061001e6000396000f3fe608060405260043610601c5760003560e01c8063b205caff14601e575b005b348015602957600080fd5b5060306046565b6040518082815260200191505060405180910390f35b60004790509056fea265627a7a7231582002c434100eae1a68456762705940000ba3b1e702fad827fa3165a342465b3f0f64736f6c63430005100032a265627a7a72315820cad5133821c0c2e3e9d6db7bddee0a711eb35555bdc6e17d38d854d59413201164736f6c634300051000326080604052348015600f57600080fd5b5060838061001e6000396000f3fe608060405260043610601c5760003560e01c8063b205caff14601e575b005b348015602957600080fd5b5060306046565b6040518082815260200191505060405180910390f35b60004790509056fea265627a7a7231582002c434100eae1a68456762705940000ba3b1e702fad827fa3165a342465b3f0f64736f6c63430005100032",
  "source": "pragma solidity >=0.4.22 <0.8.0;\r\n\r\ncontract EtherTransferTo {\r\n    \r\n    function () external payable {\r\n    }\r\n\r\n    function balanceOf2() external view returns(uint){\r\n        return address(this).balance;\r\n    }\r\n\r\n}\r\n\r\ncontract Pay {\r\n    string public functionCalled;\r\n    EtherTransferTo private _instance;\r\n\r\n    function sendEther() external payable {\r\n        functionCalled = 'sendEther';\r\n    }\r\n\r\n    function balanceOf() external view returns(uint){\r\n        return address(this).balance;\r\n    }\r\n\r\n    constructor() public {\r\n        // _instance = EtherTransferTo(address(this));\r\n        _instance = new EtherTransferTo();\r\n    }\r\n    \r\n    function sendEther2() external{\r\n        EtherTransferTo a = new EtherTransferTo();\r\n        address payable a_payable = address(uint160(address(a)));\r\n        a_payable.transfer(500);\r\n    }\r\n    \r\n}",
  "sourcePath": "C:/Users/pedro/leasing/contracts/pay.sol",
  "compiler": {
    "name": "solc",
    "version": "0.5.16+commit.9c3226ce.Emscripten.clang"
  },
  "schemaVersion": "3.2.5",
  "updatedAt": "2020-09-27T23:37:02.462Z",
  "networkType": "ethereum",
  "devdoc": {
    "methods": {}
  },
  "userdoc": {
    "methods": {}
  }
}