{
  "contractName": "Pay",
  "abi": [
    {
      "inputs": [],
      "payable": false,
      "stateMutability": "nonpayable",
      "type": "constructor"
    },
    {
      "constant": true,
      "inputs": [],
      "name": "functionCalled",
      "outputs": [
        {
          "internalType": "string",
          "name": "",
          "type": "string"
        }
      ],
      "payable": false,
      "stateMutability": "view",
      "type": "function"
    },
    {
      "constant": false,
      "inputs": [],
      "name": "sendEther",
      "outputs": [],
      "payable": true,
      "stateMutability": "payable",
      "type": "function"
    },
    {
      "constant": true,
      "inputs": [],
      "name": "balanceOf",
      "outputs": [
        {
          "internalType": "uint256",
          "name": "",
          "type": "uint256"
        }
      ],
      "payable": false,
      "stateMutability": "view",
      "type": "function"
    },
    {
      "constant": false,
      "inputs": [],
      "name": "sendEther2",
      "outputs": [],
      "payable": false,
      "stateMutability": "nonpayable",
      "type": "function"
    },
    {
      "constant": false,
      "inputs": [
        {
          "internalType": "address payable",
          "name": "_addressEtherTransferTo",
          "type": "address"
        }
      ],
      "name": "setAddressEtherTransferTo",
      "outputs": [],
      "payable": false,
      "stateMutability": "nonpayable",
      "type": "function"
    }
  ],
  "bytecode": "0x608060405234801561001057600080fd5b5060405161001d9061007f565b604051809103906000f080158015610039573d6000803e3d6000fd5b50600160006101000a81548173ffffffffffffffffffffffffffffffffffffffff021916908373ffffffffffffffffffffffffffffffffffffffff16021790555061008b565b60a18061055483390190565b6104ba8061009a6000396000f3fe60806040526004361061004a5760003560e01c80630e29df221461004f5780634375003414610059578063722713f7146100aa578063cc81afc8146100d5578063f538ba6614610165575b600080fd5b61005761017c565b005b34801561006557600080fd5b506100a86004803603602081101561007c57600080fd5b81019080803573ffffffffffffffffffffffffffffffffffffffff1690602001909291905050506101ca565b005b3480156100b657600080fd5b506100bf61020e565b6040518082815260200191505060405180910390f35b3480156100e157600080fd5b506100ea610216565b6040518080602001828103825283818151815260200191508051906020019080838360005b8381101561012a57808201518184015260208101905061010f565b50505050905090810190601f1680156101575780820380516001836020036101000a031916815260200191505b509250505060405180910390f35b34801561017157600080fd5b5061017a6102b4565b005b6040518060400160405280600981526020017f73656e6445746865720000000000000000000000000000000000000000000000815250600090805190602001906101c7929190610333565b50565b80600260006101000a81548173ffffffffffffffffffffffffffffffffffffffff021916908373ffffffffffffffffffffffffffffffffffffffff16021790555050565b600047905090565b60008054600181600116156101000203166002900480601f0160208091040260200160405190810160405280929190818152602001828054600181600116156101000203166002900480156102ac5780601f10610281576101008083540402835291602001916102ac565b820191906000526020600020905b81548152906001019060200180831161028f57829003601f168201915b505050505081565b60006040516102c2906103b3565b604051809103906000f0801580156102de573d6000803e3d6000fd5b50905060008190508073ffffffffffffffffffffffffffffffffffffffff166108fc6101f49081150290604051600060405180830381858888f1935050505015801561032e573d6000803e3d6000fd5b505050565b828054600181600116156101000203166002900490600052602060002090601f016020900481019282601f1061037457805160ff19168380011785556103a2565b828001600101855582156103a2579182015b828111156103a1578251825591602001919060010190610386565b5b5090506103af91906103bf565b5090565b60a1806103e583390190565b6103e191905b808211156103dd5760008160009055506001016103c5565b5090565b9056fe6080604052348015600f57600080fd5b5060838061001e6000396000f3fe608060405260043610601c5760003560e01c8063b205caff14601e575b005b348015602957600080fd5b5060306046565b6040518082815260200191505060405180910390f35b60004790509056fea265627a7a7231582021e084a6f6d720abdb77a98d80c09eb826102ffb102fe991028feb470abcf61d64736f6c63430005100032a265627a7a72315820264f8581170b0882e01f35f7861aceedfbcc6f5984777122afbdc5fc4f644e3764736f6c634300051000326080604052348015600f57600080fd5b5060838061001e6000396000f3fe608060405260043610601c5760003560e01c8063b205caff14601e575b005b348015602957600080fd5b5060306046565b6040518082815260200191505060405180910390f35b60004790509056fea265627a7a7231582021e084a6f6d720abdb77a98d80c09eb826102ffb102fe991028feb470abcf61d64736f6c63430005100032",
  "source": "pragma solidity >=0.4.22 <0.8.0;\r\n\r\ncontract EtherTransferTo {\r\n    \r\n    function () external payable {\r\n    }\r\n\r\n    function balanceOf2() external view returns(uint){\r\n        return address(this).balance;\r\n    }\r\n\r\n}\r\n\r\ncontract Pay {\r\n    string public functionCalled;\r\n    EtherTransferTo private _instance;\r\n\r\n    function sendEther() external payable {\r\n        functionCalled = 'sendEther';\r\n    }\r\n\r\n    function balanceOf() external view returns(uint){\r\n        return address(this).balance;\r\n    }\r\n\r\n    constructor() public {\r\n        // _instance = EtherTransferTo(address(this));\r\n        _instance = new EtherTransferTo();\r\n    }\r\n    \r\n    function sendEther2() external{\r\n        EtherTransferTo a = new EtherTransferTo();\r\n        address payable a_payable = address(uint160(address(a)));\r\n        a_payable.transfer(500);\r\n    }\r\n\r\n    address payable addressEtherTransferTo;\r\n\r\n    function setAddressEtherTransferTo(address payable _addressEtherTransferTo) external{\r\n        addressEtherTransferTo = _addressEtherTransferTo;\r\n    }\r\n    \r\n}",
  "sourcePath": "C:/Users/pedro/leasing/contracts/pay.sol",
  "compiler": {
    "name": "solc",
    "version": "0.5.16+commit.9c3226ce.Emscripten.clang"
  },
  "schemaVersion": "3.2.5",
  "updatedAt": "2020-09-28T06:54:25.116Z",
  "networkType": "ethereum",
  "devdoc": {
    "methods": {}
  },
  "userdoc": {
    "methods": {}
  }
}